{
  "contractName": "CertificateValidator",
  "abi": [
    {
      "inputs": [
        {
          "internalType": "bytes32",
          "name": "_hash",
          "type": "bytes32"
        }
      ],
      "name": "addCertificate",
      "outputs": [],
      "stateMutability": "nonpayable",
      "type": "function"
    },
    {
      "inputs": [
        {
          "internalType": "bytes32",
          "name": "_hash",
          "type": "bytes32"
        }
      ],
      "name": "isAuthentic",
      "outputs": [
        {
          "internalType": "bool",
          "name": "",
          "type": "bool"
        }
      ],
      "stateMutability": "view",
      "type": "function",
      "constant": true
    }
  ],
  "bytecode": "0x608060405234801561000f575f80fd5b5061019f8061001d5f395ff3fe608060405234801561000f575f80fd5b5060043610610034575f3560e01c80630929840814610038578063750f9f8714610068575b5f80fd5b610052600480360381019061004d919061010b565b610084565b60405161005f9190610150565b60405180910390f35b610082600480360381019061007d919061010b565b6100a9565b005b5f805f8381526020019081526020015f205f9054906101000a900460ff169050919050565b60015f808381526020019081526020015f205f6101000a81548160ff02191690831515021790555050565b5f80fd5b5f819050919050565b6100ea816100d8565b81146100f4575f80fd5b50565b5f81359050610105816100e1565b92915050565b5f602082840312156101205761011f6100d4565b5b5f61012d848285016100f7565b91505092915050565b5f8115159050919050565b61014a81610136565b82525050565b5f6020820190506101635f830184610141565b9291505056fea26469706673582212205f927a9413231bd0b01eb35c85b1e8f13a1946841bf331d26dbff0edf41bcb6c64736f6c63430008150033",
  "immutableReferences": {},
  "source": "// SPDX-License-Identifier: MIT\r\npragma solidity ^0.8.0;\r\n\r\ncontract CertificateValidator {\r\n    mapping(bytes32 => bool) private authenticCertificates;\r\n\r\n    function addCertificate(bytes32 _hash) public {\r\n        authenticCertificates[_hash] = true;\r\n    }\r\n\r\n    function isAuthentic(bytes32 _hash) public view returns (bool) {\r\n        return authenticCertificates[_hash];\r\n    }\r\n}",
  "sourcePath": "C:\\Users\\akash\\MyBlockchainProject\\contracts\\CertificateValidator.sol",
  "compiler": {
    "name": "solc",
    "version": "0.8.21+commit.d9974bed.Emscripten.clang"
  },
  "schemaVersion": "3.4.16",
  "updatedAt": "2025-09-16T13:24:23.320Z",
  "networkType": "ethereum",
  "devdoc": {
    "kind": "dev",
    "methods": {},
    "version": 1
  },
  "userdoc": {
    "kind": "user",
    "methods": {},
    "version": 1
  }
}