{
  "contractName": "CertificateValidator",
  "abi": [
    {
      "inputs": [],
      "stateMutability": "nonpayable",
      "type": "constructor"
    },
    {
      "inputs": [
        {
          "internalType": "bytes32",
          "name": "",
          "type": "bytes32"
        }
      ],
      "name": "certificateHashes",
      "outputs": [
        {
          "internalType": "bool",
          "name": "",
          "type": "bool"
        }
      ],
      "stateMutability": "view",
      "type": "function",
      "constant": true
    },
    {
      "inputs": [],
      "name": "owner",
      "outputs": [
        {
          "internalType": "address",
          "name": "",
          "type": "address"
        }
      ],
      "stateMutability": "view",
      "type": "function",
      "constant": true
    },
    {
      "inputs": [
        {
          "internalType": "bytes32",
          "name": "certificateHash",
          "type": "bytes32"
        }
      ],
      "name": "addCertificate",
      "outputs": [],
      "stateMutability": "nonpayable",
      "type": "function"
    },
    {
      "inputs": [
        {
          "internalType": "bytes32",
          "name": "certificateHash",
          "type": "bytes32"
        }
      ],
      "name": "isAuthentic",
      "outputs": [
        {
          "internalType": "bool",
          "name": "",
          "type": "bool"
        }
      ],
      "stateMutability": "view",
      "type": "function",
      "constant": true
    }
  ],
  "bytecode": "0x608060405234801561000f575f80fd5b503360015f6101000a81548173ffffffffffffffffffffffffffffffffffffffff021916908373ffffffffffffffffffffffffffffffffffffffff16021790555061048e8061005d5f395ff3fe608060405234801561000f575f80fd5b506004361061004a575f3560e01c8063092984081461004e578063750f9f871461007e5780638da5cb5b1461009a578063bedda47e146100b8575b5f80fd5b6100686004803603810190610063919061029c565b6100e8565b60405161007591906102e1565b60405180910390f35b6100986004803603810190610093919061029c565b61010d565b005b6100a2610224565b6040516100af9190610339565b60405180910390f35b6100d260048036038101906100cd919061029c565b610249565b6040516100df91906102e1565b60405180910390f35b5f805f8381526020019081526020015f205f9054906101000a900460ff169050919050565b60015f9054906101000a900473ffffffffffffffffffffffffffffffffffffffff1673ffffffffffffffffffffffffffffffffffffffff163373ffffffffffffffffffffffffffffffffffffffff161461019c576040517f08c379a0000000000000000000000000000000000000000000000000000000008152600401610193906103d2565b60405180910390fd5b5f808281526020019081526020015f205f9054906101000a900460ff16156101f9576040517f08c379a00000000000000000000000000000000000000000000000000000000081526004016101f09061043a565b60405180910390fd5b60015f808381526020019081526020015f205f6101000a81548160ff02191690831515021790555050565b60015f9054906101000a900473ffffffffffffffffffffffffffffffffffffffff1681565b5f602052805f5260405f205f915054906101000a900460ff1681565b5f80fd5b5f819050919050565b61027b81610269565b8114610285575f80fd5b50565b5f8135905061029681610272565b92915050565b5f602082840312156102b1576102b0610265565b5b5f6102be84828501610288565b91505092915050565b5f8115159050919050565b6102db816102c7565b82525050565b5f6020820190506102f45f8301846102d2565b92915050565b5f73ffffffffffffffffffffffffffffffffffffffff82169050919050565b5f610323826102fa565b9050919050565b61033381610319565b82525050565b5f60208201905061034c5f83018461032a565b92915050565b5f82825260208201905092915050565b7f4f6e6c7920746865206f776e65722063616e2063616c6c20746869732066756e5f8201527f6374696f6e2e0000000000000000000000000000000000000000000000000000602082015250565b5f6103bc602683610352565b91506103c782610362565b604082019050919050565b5f6020820190508181035f8301526103e9816103b0565b9050919050565b7f4365727469666963617465206861736820616c7265616479206578697374732e5f82015250565b5f610424602083610352565b915061042f826103f0565b602082019050919050565b5f6020820190508181035f83015261045181610418565b905091905056fea264697066735822122075c5e13da78871b55f8838847b76c3605fc60d4624474dcad57c499e15e1189f64736f6c63430008150033",
  "immutableReferences": {},
  "source": "// SPDX-License-Identifier: MIT\r\npragma solidity ^0.8.20;\r\n\r\ncontract CertificateValidator {\r\n    mapping(bytes32 => bool) public certificateHashes;\r\n    address public owner;\r\n\r\n    constructor() {\r\n        owner = msg.sender;\r\n    }\r\n\r\n    modifier onlyOwner() {\r\n        require(msg.sender == owner, \"Only the owner can call this function.\");\r\n        _;\r\n    }\r\n\r\n    function addCertificate(bytes32 certificateHash) public onlyOwner {\r\n        require(!certificateHashes[certificateHash], \"Certificate hash already exists.\");\r\n        certificateHashes[certificateHash] = true;\r\n    }\r\n\r\n    function isAuthentic(bytes32 certificateHash) public view returns (bool) {\r\n        return certificateHashes[certificateHash];\r\n    }\r\n}",
  "sourcePath": "C:\\Users\\akash\\MyBlockchainProject\\contracts\\CertificateValidator.sol",
  "compiler": {
    "name": "solc",
    "version": "0.8.21+commit.d9974bed.Emscripten.clang"
  },
  "schemaVersion": "3.4.16",
  "updatedAt": "2025-09-18T09:13:49.339Z",
  "networkType": "ethereum",
  "devdoc": {
    "kind": "dev",
    "methods": {},
    "version": 1
  },
  "userdoc": {
    "kind": "user",
    "methods": {},
    "version": 1
  }
}